:020000040800F2
:10000000B8060020350200083D0200083F02000843
:1000100041020008430200084502000800000000F9
:10002000000000000000000000000000470200087F
:1000300049020008000000004B02000821030008EC
:100040004F0200084F0200084F0200084F0200084C
:100050004F0200084F0200084F0200084F0200083C
:100060004F0200084F0200084F0200084F0200082C
:100070004F0200084F0200084F0200084F0200081C
:100080004F0200084F0200084F0200080000000065
:100090000000000000000000000000004F02000807
:1000A0004F0200084F0200084F0200084F020008EC
:1000B0004F0200084F0200084F0200084F020008DC
:1000C0004F0200084F0200084F0200084F020008CC
:1000D0004F0200084F0200084F0200080000000015
:1000E000F10200084F0200084F0200080000000063
:1000F0000000000000000000000000004F020008A7
:10010000000000004F0200084F0200084F020008E4
:1001100000000000000000000000000000000000DF
:100120004F0200084F0200084F0200084F0200086B
:100130004F02000800000000000000000000000066
:100140000000000000000000000000004F02000856
:100150004F0200084F0200084F0200084F0200083B
:100160004F0200084F0200080000000000000000DD
:10017000000000000000000000000000000000007F
:10018000000000004F020008000000000000000016
:100190004F02000800F002F800F03CF80AA090E8D6
:1001A000000C82448344AAF10107DA4501D100F032
:1001B00031F8AFF2090EBAE80F0013F0010F18BFC3
:1001C000FB1A43F0010318471C0600003C06000020
:1001D000103A24BF78C878C1FAD8520724BF30C873
:1001E00030C144BF04680C60704700000023002445
:1001F00000250026103A28BF78C1FBD8520728BF37
:1002000030C148BF0B6070471FB500F0D9FA1FBD61
:1002100010B510BD00F036F81146FFF7F5FF00F0FD
:10022000EDF900F054F803B4FFF7F2FF03BC00F05F
:1002300057F800000948804709480047FEE7FEE7F5
:10024000FEE7FEE7FEE7FEE7FEE7FEE7FEE7FEE786
:1002500004480549054A064B704700002D04000874
:1002600095010008B8000020B8060020B802002060
:10027000B802002070477047704700000048704780
:10028000580000207546FFF7F9FFAE4605006946A5
:10029000534620F00700854618B020B5FFF7D8FF79
:1002A000BDE820404FF000064FF000074FF0000877
:1002B0004FF0000B21F00701AC46ACE8C009ACE8F8
:1002C000C009ACE8C009ACE8C0098D46704710B55C
:1002D0000446AFF300802046BDE81040FFF7A3BFFF
:1002E00001491820ABBEFEE726000200704700005F
:1002F0000748006840F41C4005490860054800694B
:1003000000F41C400449086001200449086070475B
:10031000143C0140000002400C00002010000020AE
:1003200001200E4908600E480068401C0C49086016
:1003300008460068032801DD0020086009480068BD
:10034000401C0849086008460068C82804DD0020F1
:10035000054908600349086070470000000000205C
:100360000400002008000020140C024070B500209A
:100370000022022300240221274D2D6805F00C00E5
:1003800020B1042806D0082834D107E0234D244E9C
:10039000356033E0234D224E35602FE01E4D2D1F7A
:1003A0002D68C5F380541C4D2D1F2D6805F03F01AD
:1003B00054B11C4DB5FBF1F5174E361F3668C6F328
:1003C000881605FB06F209E0144DB5FBF1F5124E57
:1003D000361F3668C6F3881605FB06F20E4D2D1F34
:1003E0002D68C5F301456D1C6B00B2FBF3F50C4E97
:1003F000356003E0094D0A4E356000BF00BF064D71
:100400002D68C5F30315084E705D054D2D68C54078
:10041000034E356070BD0000083802400024F4002F
:100420005400002040787D01CA0700080548006894
:1004300040F47000034908604FF0006001498039C2
:100440000860704788ED00E06848006878BB68483D
:100450000068B0F5806F09D0B0F5006F0ED0B0F530
:10046000805F13D0B0F5004F20D117E06148406B9A
:100470006149086000205E49086017E05D48006B34
:100480005D49086000205A4908600FE05948C06A79
:100490005949086000205649086007E05548806ABD
:1004A0005549086000205249086000BF9CE0FFE702
:1004B0004E48006801282FD14D480068B0F5806F84
:1004C00009D0B0F5006F0ED0B0F5805F13D0B0F555
:1004D000004F20D117E04748806B47490860002053
:1004E0004349086017E04348406A434908600020D8
:1004F0003F4908600FE03F4880693F49086000209D
:100500003B49086007E03B48C0683B490860002061
:100510003749086000BF67E03448006802282FD1DF
:1005200033480068B0F5806F09D0B0F5006F0ED089
:10053000B0F5805F13D0B0F5004F20D117E02D4803
:1005400000682D49086000202949086017E0294803
:10055000006A294908600020254908600FE0254805
:1005600040692549086000202149086007E02148CA
:1005700080682149086000201D49086000BF33E001
:100580001A48006803282FD119480068B0F5806F19
:1005900009D0B0F5006F0ED0B0F5805F13D0B0F584
:1005A000004F20D117E01348C06B134908600020AA
:1005B0000F49086017E00F48C0690F490860002024
:1005C0000B4908600FE00B4800690B4908600020E8
:1005D0000749086007E007484068074908600020AD
:1005E0000349086000BF00BF7047000004000020FE
:1005F0000C00002014000020140C02406448006825
:1006000040F01F006249086061481430006840F4FF
:1006100080405F49143108605E48006840F4AA20B9
:100620005C49086000204860084680685A490843D1
:10063000584988605848C8600846406900204861A9
:1006400045F25550554908600020091D086045F2E3
:100650005550091D0860091D0860FFF787FE5048C6
:1006600000684FF47A72B0FBF2F1481EB0F1807F5F
:1006700000D31BE0481E4FF0E022506150170F22BC
:10068000002804DB13071C0E464B1C5406E013071E
:100690001D0E454B00F00F04241F1D5500BF002008
:1006A0004FF0E02290610720106100BF3F480068D2
:1006B00040F41C403D4908603C480830006840F464
:1006C0001C403A4908310860002139480161416104
:1006D000282000280DDB00BF00BF00F01F02012111
:1006E00091404209920002F1E022C2F8001100BFDD
:1006F00000BF00BF4AE02F48006801283DD12E48C6
:10070000006830B1012810D002281AD0032830D157
:1007100023E02048406920F400701E4948610846E3
:10072000406940F04000486123E01A48406920F0E9
:100730004000184948610846406940F0800048611F
:1007400017E01448406920F08000124948610846CB
:10075000406940F4807048610BE00E48406920F425
:1007600080700C4948610846406940F40070486157
:1007700000BF00BF00200F49086010480068012832
:1007800004D1FFF761FE00200C490860B3E70000C8
:10079000303802400000024000A0AA82000C024053
:1007A0005400002000E400E018ED00E0003C0140AF
:1007B000003801400000002004000020100000204C
:1007C0004FF04070E1EE100A70470000000000009A
:1007D00000000102030406070809000000000102EE
:1007E0000304000004080008000000205800000076
:1007F000D00100085C0800085800002060060000D6
:10080000EC010008000000000000000000000000F3
:1008100000000000000000003F0000000600000093
:100820005B0000004F000000660000006D0000004B
:100830007D000000070000007F000000670000004E
:10084000770000007C000000390000005E0000001E
:0C08500079000000710000000024F4009A
:0400000508000235B8
:00000001FF
